:020000040800F2
:10000000005000207D130008890700086D130008C8
:100010006D1300086D1300086D1300080000000048
:1000200000000000000000000000000000000000D0
:100030000000000000000000000000005107000860
:1000400000000000000000000000000000000000B0
:10005000000000000000000055080008000000003B
:100060000000000000000000000000000000000090
:100070000000000000000000000000000000000080
:100080000000000000000000000000000000000070
:100090000000000000000000000000000000000060
:1000A0000000000000000000000000000000000050
:1000B0000000000000000000000000000000000040
:1000C0000000000000000000000000000000000030
:1000D00000000000E9070008034A116813685B1A72
:1000E0008342FBD3704700BFC000002010B50F242F
:1000F0000729CFBF094B00F5801042308302C8BFEB
:1001000003EB802301F00701186889008C4020EA86
:1001100004008A4002431A6010BD00BF0408014079
:10012000094B0A4A1978137899420AD0137808497A
:10013000DBB2C85C1378C0B2013303F03F03137025
:1001400070474FF0FF3070477D0000207C0000209A
:100150007E000020034BD3F800281206FBD5C3F81D
:1001600004087047003001400D4910B50D4B0C6874
:10017000D3F81424024201D0002009E0D3F814245B
:10018000520506D56FF480624FF0FF30C3F8142497
:1001900010BD0A68121B0A2AEAD96FF00100F7E7BE
:1001A000C00000200050004038B50B4C0546D4F884
:1001B0000034012043F48073C4F80034FFF7D4FF07
:1001C00030B9C4F810540220BDE83840FFF7CCBF66
:1001D0006FF0010038BD00BF005000400346007AB8
:1001E00060B95B7AA3F10902012A09D8012070479E
:1001F0000D3B012B8CBF0020012070470020704771
:100200000029F5D0704700000022164B2DE9F0417F
:100210001A60154A0546D2F8003423F00103C2F8EB
:10022000003428B1536823F0E06343F080635360E7
:1002300000264FF001080D4C0D4F29462046FFF7D0
:10024000CDFF40B9207A617A830208FA01F2DA51CF
:100250000822FFF74BFF0136212E04F10C04ECD1EC
:10026000BDE8F08108000020000001406C42000859
:10027000140801400D4B0E49C3F83404D3F8082488
:1002800042F48002C3F808240868D3F800249207D7
:1002900004D5D3F84C04C0F30B0070470A68121A57
:1002A000052AF2D94FF0FF30704700BF002001400F
:1002B000C00000207FB5364B3648196802F0A4F81C
:1002C000354B3648196802F09FF8354B354A596866
:1002D000A3F5D0335B68344813F0040F334B344E2E
:1002E00018BF1A46334B1C68334B002C18BF03460B
:1002F000324802F089F8324B32481C68324914F017
:10030000006F08BF014614F0805F304A08BF024604
:1003100014F0005F2E4B08BF034614F0804F08BF57
:100320000646002C31DB04F07C45B5F1806F0546B4
:1003300000D12848CDE90204CDE90065264802F045
:1003400063F800235C684FF000635968234B24482E
:10035000D3F8082C234BC2F380028C4214BF014611
:100360001946214802F050F82048214BB3F8E0101C
:10037000D0F8F027D0F8EC37D0F8E80789B2009031
:100380001C4802F041F804B070BD1B4DD2E700BF1D
:100390000400002071360008000000209B36000891
:1003A00000100240AC350008AF3500089C3500084D
:1003B000EC3500086C000020C1350008A6360008A6
:1003C00074000020B63D0008D2350008DC35000876
:1003D000E6350008F2350008CF360008000001407D
:1003E0003B36000816360008FB36000800F0FF1FF9
:1003F00000F7FF1F313700080B3600082DE9F041E8
:100400000546D4200F461646FFF7CEFE264C38B1DF
:10041000D4F8003443F40073C4F80034BDE8F0812C
:10042000D4F818340420C4F81054FFF79DFE0028B7
:10043000EED1D520FFF7B8FE0028E9D1012ED4F87F
:10044000003429D123F48063C4F80034D4F818347C
:10045000D4F8003443F40073C4F800340025124C7F
:10046000A6F102084020FFF77FFE0028D0D1D4F883
:100470001034A8457B550BD1D4F8003423F48063A5
:10048000C4F80034D4F8003443F40073C4F80034E2
:100490000135AE42E6D1C1E743F48063C4F80034CD
:1004A000D4F81834DAE700BF0050004007B5012245
:1004B0000DF10701FFF7A2FF20B99DF8070003B077
:1004C0005DF804FB4FF0FF30F9E7000070B5064619
:1004D000D4200D46FFF768FE0B4C30B1D4F8003441
:1004E00043F40073C4F8003470BDD4F8183480208D
:1004F000C4F81064FFF738FE0028EFD1C4F8105498
:100500000420FFF731FEE9E70050004070B50F20EE
:10051000FFF7CCFF041E05DA6A21364801F074FFAC
:10052000002070BD344B354A2146702C08BF1A4656
:10053000334801F069FF702CF2D1324C01211220B6
:10054000FFF7C4FF25681220FFF7B0FFC30703D5EC
:1005500023685B1B132BF6D90320FFF7A7FF011EAF
:1005600018DB032001F0E701FFF7B0FF041E18BFFE
:1005700001240025244E717816F8020BFFF7A6FF20
:1005800001350E2D44EA0004F5D12CB11F4801F0CD
:100590003BF8C5E70124ECE75E20FFF787FF6828FA
:1005A000F4D101241D20FFF781FF194B1948D3F81E
:1005B000002822F00F0242F00802C3F80028C3F816
:1005C00014489A6822F00F029A60D3F80824224354
:1005D000C3F80824C3F81444D3F800242243C3F812
:1005E00000244FF0E0234022C3F8002101F00CF872
:1005F000204696E7873700085C3700087037000808
:10060000B0370008C000002050420008CB37000877
:1006100000000140ED3700082D4A70B5D36940262F
:1006200043F40013D361802309252A4CC4F8106CCD
:10063000C4F8103CD4F8003C23F0706343F0C0636E
:10064000C4F8003CD4F8003C23F0704343F0C043AE
:10065000C4F8003CD4F8083C1B060AD40120C4F8B6
:10066000146CFFF739FDC4F8106CFFF735FD013D40
:10067000F0D18025174C0120C4F8145CFFF72CFD45
:100680004FF40042C4F8105CD4F8003C43F07063AF
:10069000C4F8003CD4F8003C43F07043C4F8003C7C
:1006A0000D4B0E4CC3F800240022C3F800240C4A62
:1006B00011680C4AB1FBF2F2B1FBF4F1C3F8042467
:1006C0000244C3F81C14C3F82024C3F8000470BD0E
:1006D000001002400000014000500040801A060057
:1006E0000400002080841E0038B50025144C012130
:1006F0002046FFF773FD20B90422617A207AFFF7C4
:10070000F5FC0135212D04F10C04F0D10D4A53689C
:1007100023F0E06343F00073536002F580525368A6
:1007200023F4700343F4001353600122064B1A6054
:10073000FFF772FFFFF7EAFE044B186038BD00BFF9
:100740006C420008000001400800002070000020FA
:100750000A4B1A6801321A60094A126862B14FF4F2
:10076000FA721B68B3FBF2F102FB113323B9054A9D
:10077000D36883F40053D360704700BFC0000020EB
:100780000800002000100140114B9A6812061ED587
:100790004FF47A719A6842F400029A600D4A0E4B47
:1007A00013601368B3FBF1F34FF0E021013B4B61A1
:1007B00000238B6113684FF4E13203F56143B3FB0F
:1007C000F2F3064AC2F80838054B064A1A60704729
:1007D000001002400400002000127A0000300140A6
:1007E00000000020423800080B4B10B5D3F8002859
:1007F000920610D5094AD3F80408094913780978F4
:10080000013303F03F03994205D01178054CC9B27A
:10081000C0B26054137010BD003001407D00002054
:100820007C0000207E00002038B514464D1EC1F12A
:1008300001014B199C4201DC204638BD6B780A2B24
:1008400002D10D20FFF786FC15F8010FFFF782FC9F
:10085000EFE700000122044BC3F81424034A136895
:1008600001331360704700BF000001407800002092
:100870002DE9F04F7E4C7F4B626A7F491A60E36935
:10088000A7B043F08053E3617C4B5A6802F0020248
:100890000A601A6842F0F8021A60636A43F08073D3
:1008A0006362236843F001032360754B2268960757
:1008B00001D4013BFAD1636823F003036360704BFA
:1008C000626812F00C0F01D0013BF9D1236823F0CC
:1008D00084732360A36843F40003A360684B226819
:1008E000950101D5013BFAD1236823F480332360BD
:1008F000236843F480332360614B2268900301D462
:10090000013BFAD112215F4A116022689BB142F487
:10091000002222605C4A6260226842F0807222609B
:10092000574A2168890100F1EF84013AF9D1574B08
:10093000574A00F0F8BC22F480322260554AEAE7B8
:100940009DF85160B30602D5534800F05DFEF706EE
:1009500002D5524800F058FE9DF85010080701D506
:100960004F4829E016F0300F28D132464D4801F0AB
:100970004BFD23E030464C4901F058FC28B130468D
:100980004A4901F053FC002841D1FFF793FC484845
:1009900001F03AFD0025474B1A687AB10022452044
:1009A0001A6014A90222FFF729FD06461D20FFF751
:1009B0007DFD002EC4D0404800F026FEFFF7B0FBBE
:1009C0000028E8DB0D2802D00A2840F00684002722
:1009D0000A2001F053F805F198030DEB03053749A0
:1009E0001AA805F8307C01F05BFB3449064638460E
:1009F00001F056FB0746002EC9D03046304901F0C1
:100A000015FC0028B6D12F4800F0FEFDBFE73046A8
:100A10002D4901F00BFC0546002861D12B4800F060
:100A2000F3FD2B4EDFF8AC80DFF8ACA0DFF8AC9024
:100A3000D6E903E0077831787369D6E9012CA7B1CC
:100A400093F800B0BBF1000F14BF57464746CDE9FD
:100A50000273CDE900E063464846013501F0D4FC5D
:100A6000302D06F11C06E3D191E74746EFE700BFC2
:100A700000100240740000206C0000200070004054
:100A8000400D03000020024000841D0000000020F3
:100A9000E83D000800843800483900084139000862
:100AA000573D00084C3900087B3A0008803A00089E
:100AB00027390008780000202A390008FB38000890
:100AC0007439000879390008863A00088B3A000822
:100AD000F8430008B63D0008FA380008C23A00089A
:100AE0003046AD4901F0A2FB0D90002840F0E080B7
:100AF00037B13846A94901F099FB002800F0D480AD
:100B00000020A74901F0CCFA054637B1002238464B
:100B1000114600F027FD834608B94FF4FA7B35B142
:100B200028469E4901F082FBB0FA80F56D09002647
:100B30002846FFF769FB9B4B9B4A5946002D18BF7F
:100B40001A469A48DFF868A201F05EFC0C96FFF79F
:100B5000E7FA002880F2A08029465046FFF73EFBC6
:100B6000002840F091809AF808709AF80980384679
:100B700002224146FFF7BAFA012303FA08F30E9363
:100B80000E998C4ABB029950DAE900310B93DFF8D9
:100B900028928A4B0B9A8A480F9101F035FC5846EF
:100BA000FFF79AFAD9F808380E981793D9F8083C45
:100BB00084491893844BBA029B68505019930B9A3E
:100BC000824B0F997E4801F01FFC5846FFF784FACC
:100BD000D9F8083841461493D9F8083C384615939B
:100BE000794B08229B681693FFF780FA0D9B01331F
:100BF0000D9326AB03EB870353F8483C23FA08F91F
:100C000026AB03EB870757F83C3C09F0010923FAB0
:100C100008F3D90704D40B996D4801F0F5FB0136B0
:100C2000B9F1000F04D00B996A4801F0EDFB0136D1
:100C30004FF000085E4FDFF8A0910C9B43451CD09D
:100C400029463846FFF7CAFAB8B93B7A26AA02EB1A
:100C50008302797A52F83C2CCA40D2070DD526AAD5
:100C600002EB830353F8483CCB40DB0705D44846EE
:100C70000B9A396801F0C8FB013608F10108B8F198
:100C8000210F07F10C07D8D10C9B0AF10C0A013394
:100C9000212B0C937FF45BAF32460D994F4801F046
:100CA000B3FBFFF721FD72E64FF4FA7B01253EE727
:100CB00030464B4901F0BAFA0546002852D14FF0B0
:100CC0000109FFF7A1FA10AE464800F09DFC10950F
:100CD000C6E90155DFF8E080DFF80CA1FFF720FA44
:100CE00000283BDA0027D8F80838314D1493D8F89B
:100CF000083C1593344B9B68169300212846FFF758
:100D00006DFAA0B92A7A26AB03EB8202697A52F80F
:100D1000483CCB40B9F1000F19D003F0010232B1C9
:100D2000D5E90021504603F0010301F06DFB0137C6
:100D3000212F05F10C05E0D114AB93E8070086E8FC
:100D400007000520FFF7C8F94FF00009C6E752F881
:100D5000582CCA405A4002F00102E0E7234800F054
:100D600053FC9EE73046224901F060FA002840F02B
:100D70009E80204D2B6843B10E22202010A9FFF742
:100D80003DFB00283AD01C483EE6FFF7BFFB286039
:100D90000028F8D0F0E700BFE13A0008E63A000882
:100DA000FB380008FD380008B63D0008EA3A0008A4
:100DB0006C4200081008014000000140143B00088C
:100DC000193B00081408014000100140283B0008AE
:100DD0002C3B0008613B0008953B0008B43B000831
:100DE000D33B0008D73B0008133C0008223C000816
:100DF0002B3C0008700000202F3C000810AB14A909
:100E00005D7813F8022B013042EA0522072821F809
:100E1000022BF5D10A20BDF95030462258434FF03D
:100E20003D03BDF95AE0BDF95C8003FB0EFACDE944
:100E300007E84FF00A0E4FF47A7148BFFF30BDF952
:100E40005250BDF95460BDF95670DFF804B300127A
:100E5000FA30BDF958C002FB05F502FB06F602FBAD
:100E600007F7BC4A58BF5A460028B8BF404203FBA8
:100E70000CF9CDF818C0B0FBFEFC95FBF1F596FB24
:100E8000F1F697FBF1F70EFB1C0003FB08F3CDE92D
:100E900004C093FBF1F3CDE90272CDE900569AFB51
:100EA000F1F2AD4899FBF1F101F0AEFA6FE5304691
:100EB000AA4901F0BBF9F0B9A94801F0A5FA082543
:100EC000A84EA94F680000F0FE00FFF76DF9D6F8B4
:100ED0001834D6F8003443F40073C6F8003418B957
:100EE0002946384601F090FA0135782DEAD10A20DA
:100EF00000F0C4FD4BE530469C4901F097F900280D
:100F000032D15FB338469A4901F090F940B3384680
:100F1000984901F08BF928B33846974901F086F9D2
:100F200000280CBF002506256368002D23F0E06330
:100F300043EA05634FF008010CBF04220B22002096
:100F40006360FFF7D3F8053D022D96BF8B4B8A49AE
:100F500053F825108A4801F057FA18E50625E3E70B
:100F60000725E1E70525DFE73046864901F05EF910
:100F70008146002840F09780834A844DD2F800389B
:100F8000D2F8007CA2690B9342F40072A2616FF068
:100F90007F42C5F80C246FF04042C5F81024C5F814
:100FA0002C040120C5F80804FFF796F8784AC5F824
:100FB0000824D5F8082442F00802C5F80824754A28
:100FC0001068D5F808140E0703D51168091A04290A
:100FD000F7D9D5F8081441F00401C5F808141068D1
:100FE000D5F80814490703D51168091A0429F7D957
:100FF00000260120FFF770F8634A27F0FF01C2F8CE
:1010000000681120C2F8001CFFF734F9011EC8BFA8
:10101000614E6248C8BFB6FBF1F6324601F0F4F902
:10102000DFF87CA1DFF87C81DFF87CB14846FFF770
:1010300021F9002821DAB9F1070FDCBF4A46414601
:101040004B46C8BF58495948C8BFA9F1080201F02A
:10105000DBF909F10109B9F10A0FE7D10B9A4A4B03
:10106000C3F80028C3F8007C0023514AC5F80834AF
:10107000936923F40073936189E440F6FF7E06FBD5
:1010800000FCBCFBFEF3B9F1070FCDE90003CEBFB6
:1010900059464A4641464B465046C8BFA9F1080248
:1010A00001F0B2F9D5E73046424901F0BFF8002817
:1010B0003FD11D20FFF7FAF9334AD2F8003823F068
:1010C0000F0343F00403C2F80038D2F80838DA07F7
:1010D00002D5394800F098FA384800F095FA384AB5
:1010E000D2F800385B06FBD54FF0E02300211961F0
:1010F000D2F80C1821F02001C2F80C182249D1F8BE
:10110000002422F00102C1F800242E4A116841F0A7
:1011100006011160516841F480715160D3F8102DBF
:1011200042F00402C3F8102D30BF274AC3F80C2D3B
:101130002DE43046254901F079F800284AD12448A9
:1011400000F062FA0520FEF7C7FF4FF0E023ECE75E
:10115000B63D000822410008423C00088F3C0008D0
:10116000973C0008005000409D3C0008A53C00084A
:10117000A93C0008AD3C00081139000844420008B1
:10118000B13C0008C83C00080000014000200140BC
:1011900001009E00C000002050FB4A00CC3C00082B
:1011A000003D00081539000818390008EC3C00081B
:1011B000001002401E3D0008263D00085C3D00086E
:1011C00000300140007000400400FA05923D000824
:1011D000983D000831465548BDE6082818D07F28BC
:1011E00003D145B15248013D8AE01F287FF7D3ABB8
:1011F0002E2D3FF6D0AB05F19803691CC0B20DEB64
:10120000030505F8300CFEF7A5FF0D46FFF7C3BB3D
:10121000002D3FF4BFABE5E7464A002B464B08BF25
:101220001346464A1360464A464B18BF1346464A81
:1012300013604FF47A71A369404843F4804343F04C
:101240001D03A361414B00255A68414E22F0E06224
:1012500042F000725A600268B2FBF1F24FF0E021F6
:10126000013A4A6107228D610A61726822F47002B4
:1012700042F4001272604FF4005232614FF4805217
:10128000C3F81428D3F8042822F4702242F4C022B0
:10129000C3F80428D3F8042822F0F00242F0B00288
:1012A000C3F80428D3F8042822F4706242F40062E0
:1012B000C3F804284FF48062C3F810284FF4E132D9
:1012C000036803F56143B3FBF2F3224AC2F808381E
:1012D00042F22C03C2F80C382023C1F804311E4B13
:1012E0000222186829462B46806800F057FDFEF759
:1012F000E1FFFFF791F9FFF709F9184B186018485B
:1013000001F082F8FFF747BB626842F002026260B8
:10131000144A616801F00C0108293FF47DAF013ADD
:10132000F7D1094B104A1A6083E700BFA23D0008BD
:10133000B33D00080090D00300A24A04040000203E
:1013400076380008C1380008000000200000014085
:10135000001001400030014010000020700000200B
:101360001B390008400D0300B73D00084FF4005240
:10137000014B5A61FEE700BF0010014008B54FF075
:1013800000624FF0E023C3F8082D0E4B0E48DA1C24
:10139000121AC11E22F00302994288BF00220B4993
:1013A00000F0A6FD0A4B0B48DA1C121AC11E22F0EF
:1013B0000302994288BF0022002100F03FFAFFF7A4
:1013C00057FAFEE76C00002000000020084B0008E0
:1013D0000C0200206C0000200346024A10680344FF
:1013E000136070470C0000204FF0FF3070474FF043
:1013F000FF307047012070474FF0FF3070470020EA
:1014000070474FF0FF30704701207047FEE7000043
:101410002DE9F04707460E46484C304616F801EBDA
:1014200014F80EC01CF0080CF7D1BEF12D0F5AD0E5
:10143000BEF12B0F09BF6446644696F800E0861C97
:101440004BB9BEF1300F5CD00A234FF0050A994624
:10145000DFF8EC800AE0102B4AD04FF0FF38B8FBE1
:10146000F3F803FB08FA99466FEA0A0A00252846B2
:1014700005E02CD0012509FB00C016F801EBAEF108
:10148000300CBCF1090F06D9AEF1410CBCF1190FBB
:101490000BD8AEF1370C634510DDB5F1FF3FECD052
:1014A0004045E6D94FF0FF35E7E7AEF1610CBCF1FE
:1014B000190F03D8AEF1570C6345EEDC6B1C0BD053
:1014C00004B140420AB165B91160BDE8F087D44566
:1014D000D0DD4FF0FF35D0E7222328463B60002ABD
:1014E000F3D0711EF0E796F800E00124861CA7E710
:1014F000BEF1300F11D04FF00F0A6FF070489946CF
:10150000B4E7337803F0DF03582B0BD008234FF0F8
:10151000070A6FF060489946A8E7307800F0DF00CE
:101520005828E8D14FF0100996F801E04FF00F0A63
:101530006FF070484B46023698E700BFFD4900083F
:101540009999991964E700BF8C4600B58646134601
:10155000034A714610685DF804EB624658E700BF25
:10156000100000208C4600B586461346034A71469B
:1015700010685DF804EB62464AE700BF10000020E7
:10158000036A70B506460D468468002B38D0A389DF
:101590001B0714D5236993B1013DA36815F8011FFA
:1015A000013BA360D9B1002B04DAA2699A420FDC97
:1015B0000A290DD023685A1C22601970EDE72146D4
:1015C000304600F089FB0028E6D04FF0FF3070BDB8
:1015D0002246304601F0B4F80130DED1F5E7002BA9
:1015E00008DA22460A21304601F0AAF80130ECD090
:1015F0000A2070BD0A222368591C21601A70F7E77F
:1016000000F0F4F8C3E700BF024B01461868FFF78B
:10161000B7BF00BF1000002000207047024A0349F6
:10162000034800F037BB00BF60000020F11900083C
:10163000140000200C4B416810B59942044601D0BB
:1016400000F0D6F9A168094B994202D0204600F07B
:10165000CFF9E168064B994204D02046BDE810401E
:1016600000F0C6B910BD00BFC40000202C0100204E
:1016700094010020002070472DE9F8430025042341
:10168000294C2A490822C4F8381104F15C00294683
:10169000DFF89C90DFF89C80274F284EC4E9033583
:1016A000C4E90055C4E90555A560656600F0C6F8B3
:1016B000234B0822294604F1C4006367C4E90849A2
:1016C000C4E90A87C4E91A55C4E91E55266325678B
:1016D000C4F8CC50C4F8805000F0B0F8194B29463B
:1016E000C4F8DC30082204F1680304F59670C4F8ED
:1016F0008830C4E92398C4E92576C4E93455C4E99F
:101700003855C4F8D850C4F83451C4F8E85000F043
:1017100095F804F1D003C4E93D98C4E93F76C4F8D4
:10172000F030BDE8F88300BFC40000201D1600089B
:101730004D28000875280008B5280008D928000899
:101740000900010012000200F8B5254B0646D3F847
:101750003831002B3CD0234FD7E90134013B04D56D
:101760001DE05A1C04F1680419D0B4F90C50013B77
:10177000002DF6D11C4B08222946C4E90155C4E9C5
:101780000455E36065662560A56104F15C0000F026
:1017900055F8C4E90D55C4E912552046F8BD3D6819
:1017A0000DB12F46D8E74FF4D671304600F094F9CA
:1017B000044680B104230560294625460C304FF4C9
:1017C000D072A060636000F039F83C602F46C3E738
:1017D000FFF752FFBFE70C2338603360DDE700BF3F
:1017E000C4000020600000200100FFFF036A03B175
:1017F0007047044B044AD3F838310262002BF7D10A
:101800003AE700BFC400002035160008704700BF4B
:10181000704700BF0020024A024900F03BBA00BFF7
:1018200060000020191600080020024A024900F05A
:1018300031BA00BF600000207516000870B5860739
:1018400047D0541E002A3ED00346CAB201E0013CF4
:1018500039D303F8012B9D07F9D1032C2CD9CDB234
:1018600005EB05250F2C1A4605EB054534D9A4F1E7
:10187000100C2CF00F0603F1100EB6444FEA1C1C9E
:10188000C2E90055C2E9025510327245F8D10CF197
:10189000010214F00C0F03EB021204F00F0C13D032
:1018A000ACF1040323F003030433134442F8045B54
:1018B0009342FBD10CF003042CB1C9B21C4403F8D1
:1018C000011BA342FBD170BD64461346002CF4D12A
:1018D000F9E703461446C0E7A446E1E7F8B5B1F9D5
:1018E0000C300C461E07074639D44A68002A53DDDF
:1018F000E56A002D31D000223E683A6013F4805230
:10190000216A55D101233846A847451C024663D0B9
:10191000B4F90C30E56A216A580705D56368D21A14
:10192000636B0BB1236CD21A00233846A847421CC4
:1019300040D00022236962602360A389DB0400D5C4
:101940006065616B3E6041B104F14403994202D08D
:10195000384600F041F9002363630020F8BD0E69AA
:10196000002EFAD09B0718BF00230D6808BF4B69F3
:101970000E60AD1B8B600CE02B463246D4F828C0BD
:101980003846216AE047B0F1000CA5EB0C0566442F
:1019900006DD002DF0DCE0E70A6C002AA8DCDCE7BD
:1019A000B4F90C3043F040034FF0FF30A381F8BD91
:1019B000626DB1E73968B4F90C301D29F2D80B4AD1
:1019C000CA40D507EED50022626022692260DA049F
:1019D000B7D50029B4D0B4E73B68002B98D01D2BB5
:1019E00001D0162BDCD13E60B7E700BF01004020DC
:1019F0000B69B3B110B5044682B008B1036A5BB19C
:101A0000B1F90C3013B9002002B010BD204602B06D
:101A1000BDE81040FFF762BF0191FFF7E7FE0199B3
:101A2000EEE70020704700BFB8B138B50D4A036932
:101A3000044615682BB10DB12B6A53B1B4F90C30C3
:101A40000BB9002038BD21462846BDE83840FFF7D5
:101A500045BF2846FFF7CAFEF0E7034A034904489A
:101A600000F018B91000002060000020F1190008F3
:101A700014000020826800F0C1BA00BF024B01468A
:101A80001868826800F0BABA1000002070B5114ED4
:101A9000054633680C46BBB12146284600F0C4FE1B
:101AA000431C01460CD0C41C24F00304A04205D002
:101AB0002846611A00F0B8FE013001D0204670BD02
:101AC0004FF0FF34204670BD194600F0ADFE306087
:101AD000E2E700BF000200202DE9F843CD1C25F00D
:101AE000030508350C2D38BF0C25002D064618DBE4
:101AF000A94216D8DFF8DC8000F00CFBD8F80420EF
:101B0000A2B1144603E0636822467BB11C462368F9
:101B10005B1BF8D40B2B1FD89442636854D05360DE
:101B20000CE00C2333600020BDE8F88329463046E2
:101B3000FFF7ACFF431C044619D00560304600F0A7
:101B4000EBFA04F10B00231D20F00700C21A1CBFA2
:101B50001B1AA350BDE8F88361199442256014BF95
:101B60005160C8F80410635163684B60E6E7D8F829
:101B700004701FB33C467F68002FFBD123683946B1
:101B8000304604EB030900F04FFE814516D123686F
:101B90003046ED1A2946FFF779FF01300ED0236851
:101BA000D8F804202B442360536883B1A34203D0A8
:101BB0001A465B689C42FBD10023B0E70C233046F9
:101BC000336000F0A9FAAEE7C8F80430B6E7C8F809
:101BD0000470B3E700020020002950D038B551F856
:101BE000043C0C1F002BB8BFE418054600F092FA25
:101BF000274A13682BB1A3420CD92168601883428D
:101C00002CD0284663601460BDE8384000F084BAE8
:101C1000A3420FD81A465B68002BF9D111685018FF
:101C2000844217D02CD3636054602846BDE8384006
:101C300000F072BA11685018A04214D020D8216860
:101C400060188342EFD118685B680844C4E9000358
:101C50005460EAE723680B441360E6E718685B68A2
:101C600008442060CDE72068014450188342116089
:101C7000DBD1D3E900040144C2E90014D5E7704781
:101C80000C2328462B60BDE8384000F045BA00BF61
:101C9000040200202DE9F8434FF0000980460F466A
:101CA0001646D6E90154013D10D4A389012B08D969
:101CB000B4F90E30013304D021464046B84749EA12
:101CC0000009013D6B1C04F16804EED13668002E5A
:101CD000E7D14846BDE8F88338B52F4B05461B6869
:101CE0000C4613B11A6A002A4BD0B4F90C3018070D
:101CF0001CD5226922B313F0010107D000206169CD
:101D0000A0604942A1613AB1002038BD980758BF90
:101D10006169A160002AF7D1190658BF1046F4D5B1
:101D200043F04003A3814FF0FF3038BDD9062CD5D6
:101D30005A0712D4226943F00803A381002ADAD19A
:101D400003F42071B1F5007FD5D02146284600F07C
:101D5000E5F9B4F90C302269CDE7616B51B104F1BA
:101D60004402914204D02846FFF736FFB4F90C3004
:101D7000002262630021226923F02403C4E90021C8
:101D8000D9E71846FFF732FDAFE7092243F04003D9
:101D90002A60A381C7E700BF100000202DE9F043AF
:101DA000524C0E46D4F80080174604461D4683B0B8
:101DB000B8F1000F03D0D8F82030002B7FD0022FCD
:101DC00003D0012F7FD8002D7DDB21464046FFF751
:101DD0000FFE616B41B104F14403994202D04046C9
:101DE000FFF7FAFE002363630023B4F90CC0A3617C
:101DF0001CF0800F636042D12CF44A6C2CF0030C71
:101E0000022FA4F80CC048D001AB214640466A46D8
:101E100000F0E6F9A3891843A081D5B1D6B1D8F86E
:101E200020302BB3B4F90C30012F04BF43F0010371
:101E3000A38113F00802C4E9046526601CD0DB0707
:101E40003BD5002300206D42A561A36003B0BDE82F
:101E5000F083009D284600F0C1F80646002835D0E2
:101E6000A38943F08003A381D8F82030002BD9D177
:101E70004046FFF7BBFCD5E7A2600020E6E74046FE
:101E80002169FFF7A9FEB4F90CC0022F2CF44A6CAB
:101E90002CF0030CA4F80CC0B6D1002000210122C4
:101EA00004F147034CF0020CA4F80CC0236023613A
:101EB000A160626103B0BDE8F083A560DDE7404644
:101EC000FFF794FC7BE74FF0FF30BFE7DDF80090B1
:101ED000A94506D0484600F081F8064608B14D46AF
:101EE000BEE74FF0FF30B4F90CC0D7E71000002078
:101EF000844641EA000313F0030349D1403A23D357
:101F00000B6803604B6843608B688360CB68C36079
:101F10000B6903614B6943618B698361CB69C36161
:101F20000B6A03624B6A43628B6A8362CB6AC36249
:101F30000B6B03634B6B43638B6B8363CB6BC36331
:101F400040304031403ADBD230320BD30B68036073
:101F50004B6843608B688360CB68C360103010317E
:101F6000103AF3D20C3205D351F8043B40F8043B4D
:101F7000043AF9D2043208D0D2071CBF11F8013B51
:101F800000F8013B01D30B8803806046704700BF17
:101F9000082A13D38B07B1D010F00303AED0C3F1DE
:101FA0000403D21ADB071CBF11F8013B00F8013B08
:101FB000A4D331F8023B20F8023B9FE7043AD9D37F
:101FC000013A11F8013B00F8013BF9D20B7803709C
:101FD0004B7843708B78837060467047024B0146A4
:101FE0001868FFF779BD00BF10000020024B0146C2
:101FF0001868FFF7F1BD00BF1000002030B505469E
:10200000144683B008B1036ACBB1A368013B002B2F
:10201000A36012DAA269934208DBC8B20A2805D08D
:1020200023685A1C2260197003B030BD224628462E
:1020300003B0BDE8304000F083BBC8B2F0E70191C7
:10204000FFF7D4FB0199E0E7144B70B51E68054615
:102050000C460EB1336AE3B1A368013B002BA360C9
:1020600011DAA269934207DBE8B20A2804D0236898
:102070005A1C22601D7070BD224629463046BDE8BC
:10208000704000F05DBB2368E8B25A1C22601D70EE
:1020900070BD3046FFF7AAFBDEE700BF100000204E
:1020A000194B70B51D6804466A6C0E4632B1314654
:1020B0002046BDE87040012300F0A2BD5020FFF78C
:1020C0008DFF02466864D0B100230377C0E9003376
:1020D000C0E90233C0E90433C0E90B33C0E90D3372
:1020E000C0E90F33C0E91133C0E909338361C36428
:1020F00031462046BDE87040012300F081BD5B21E0
:10210000024B034800F06AFB100000203849000829
:1021100050490008704700BF704700BF70B5B1F963
:102120000C300C46990796B007D5012204F14703FD
:10213000C4E90432236016B070BDB4F90E10054630
:10214000002929DB6A4601F04DF8002822DB4FF414
:1021500080612846019EFFF7BFFC88B3A38906F47F
:10216000704643F08003A3814FF48063B6F5005FAF
:10217000C4E904032060DED12846B4F90E1000F053
:1021800057F90028D7D0A38923F0030343F00103B4
:10219000A381D0E7B4F90C3013F0800F14BF4026B0
:1021A0004FF4806628463146FFF796FC40B1A3897C
:1021B000C4E9040643F080032060A38116B070BD1B
:1021C000B4F90C309A05B6D4012123F0030304F1CD
:1021D000470243F00203C4E90421A3812260AAE775
:1021E00070B50C46B1F90E10154600291E4696B082
:1021F0000FDB6A4600F0F6FF00280ADB019B4FF474
:10220000806203F47043A3F50053B3FA83F35B09D0
:1022100007E0A289002312F0800F14BF40224FF480
:102220008062002033602A6016B070BD80EA010C25
:102230001CF0030F37D110F0030C20F0030021F045
:10224000030150F8042B08BF51F8043B0ED08CF06A
:10225000030C6FF07F434FEACC0C23FA0CFC51F8CF
:10226000043B42EA0C0243EA0C0300BFA2F1013C2A
:102270009A4201BF2CEA020C1CF0803F50F8042B5C
:1022800051F8043BF2D04FEA02604FEA12220128D3
:1022900028BFB0EB036F08BF1B0AF4D003F0FF03A5
:1022A000000EC01A704710F0030F0AD010F8012B6F
:1022B00011F8013B012A28BF9A42F4D0A2EB030097
:1022C00070474DF8045D50F8042B01F0030521F030
:1022D000030151F8043B022D26D04DD822F07F4552
:1022E000B5EB132FA2F1013C2CEA020C0DD11CF02E
:1022F000803C08BF51F8043B0AD185EA0205B5EBE2
:10230000036F0CD150F8042BE8E74FEA13235BE08E
:102310003CF07F4C54D10B784FEA126554E04FEA01
:10232000126503F0FF034FE04FEA0245A2F1013CC2
:102330004FEA15452CEA020CB5EB134F18D11CF0EF
:10234000803C08BF51F8043B07D185EA0205B5EB94
:10235000034F09D150F8042BE6E75FEA0C4C2FD16C
:102360000B884FEA12452FE04FEA03434FEA12452C
:102370004FEA134328E000BF02F0FF05B5EB136FEF
:10238000A2F1013C2CEA020C0DD11CF0803C08BFEC
:1023900051F8043B0AD185EA0205B5EB032F0AD1B7
:1023A00050F8042BE8E74FEA13630DE012F0FF0F3B
:1023B00006D051F8043B4FEA122523F07F4303E097
:1023C0004FF0000020BC704705F0FF0203F0FF0053
:1023D000012828BF904204BF2D0A1B0AF4D0A2EBAB
:1023E000000020BC704700BF0EB400B582B003AB44
:1023F00053F8042B8168019300F068F802B05DF88F
:1024000004EB03B0704700BF0FB400B5074A83B0B8
:1024100004AB106853F8042B8168019300F056F860
:1024200003B05DF804EB04B0704700BF100000205B
:10243000002238B5064D044608462A60FEF7DAFF4A
:10244000431C00D038BD2B68002BFBD0236038BD67
:10245000080200209368013B002B936005DAD2F854
:1024600018C0634507DB0A2905D01368581C1060A3
:1024700008461970704700F063B900BF9BB1F8B50A
:10248000134406460F46541E5D1E01E0AC4208D0C0
:102490003A46304614F8011FFFF7DCFF431CF5D124
:1024A000F8BD0020F8BD0020704700BF936810B54C
:1024B00014461BB918460023636010BD00F010FAE3
:1024C0000023A3600023636010BD00BF2DE9F04F1F
:1024D000A1B08B4691461C46049018B1036A002BAC
:1024E00000F01381BBF80C30180740F18E80DBF848
:1024F0001030002B00F08980002343F220020D935E
:1025000099F800300127824E0794ADF83920002B4E
:1025100073D04D4603E015F8013F002B7FD0252BEB
:10252000F9D1B5EB090A7DD12B78002B65D00023BA
:102530004FF0FF320135CDE9092308930B938DF855
:1025400063301E9306E02546089B801B07FA00F0C7
:10255000034308932C46052214F8011B304600F073
:102560006BFEA1460028EED1089BD90644BF20226D
:102570008DF863201A0748BF2B22297848BF8DF8B1
:1025800063202A2964D1079A11680432002907922E
:10259000C0F296800B9169782E296FD05D4C032292
:1025A000204600F049FE38B14022089B001B8240C3
:1025B000134309F10109089319F8011B0622564833
:1025C0008DF8381000F038FE00287FD0534B002BD8
:1025D00069D007A900915A460498514B08A9AFF356
:1025E00000800390039B013307D00D9B039A134493
:1025F0000D9399F80030002B8BD1BBF80C305B06A3
:102600000AD40D9821B0BDE8F08F59460498FFF721
:1026100063FB00283FF470AF4FF0FF30F2E7B5EBFB
:10262000090AEAD009F1FF3805954546DDF8108022
:1026300001E0A2453ED92C465A46404615F8011FF6
:10264000FFF708FF02340130A4EB0904F1D1D4E70D
:10265000A1F13002092A88BFA9469DD80B9B00E052
:102660000134217803EB830302EB4303A1F1300231
:10267000092AF5D92E29A1460B938FD199F801107B
:102680002A292DD1079B09F102001A680433002A78
:102690000793B8BF4FF0FF3399F8021009928146B3
:1026A000B8BF09937AE7079B073323F00703083382
:1026B00007939AE70D99059D51442B780D9134E7C6
:1026C000494243F002030B91089364E707A9009184
:1026D0005A460498124B08A900F042FC039081E787
:1026E0000023A1F13002092A09F1010909933FF6FB
:1026F00055AF19F8011F03EB830302EB4303A1F16C
:102700003002092AF5D9099348E7FFF76FF8E9E69F
:1027100080490008884900088C4900080000000032
:102720007D2400088C4600B586461346034A714650
:1027300010685DF804EB6246FFF7C8BE1000002089
:10274000F8B506460D46144610B1036A002B37D083
:10275000A269A389A2601A0719D52369BBB12268AF
:102760006169D31AEDB299422F4620DD0133A16889
:102770000139A160511C2160157062699A420DD027
:10278000A389DB0701D50A2D08D03846F8BD2146BC
:102790003046FFF7A1FA38B92369E0E72146304611
:1027A000FFF726F90028F0D04FF0FF37EDE721467C
:1027B0003046FFF71DF90028F6D101232268D6E73D
:1027C000FFF714F8C4E700BF03460A460249086849
:1027D0001946FFF7B5BF00BF10000020144600B532
:1027E0001A460A4B0D461B6885B0DE6803464CB19D
:1027F00007490191304607490294009500F0D8FA44
:1028000000F0E4F904490C46F3E700BF1000002093
:1028100094490008A4490008A049000808B51346D7
:102820000022FFF7DBFF00BF002238B5064D04464B
:1028300008462A60FEF7D0FD431C00D038BD2B6847
:10284000002BFBD0236038BD0802002010B50C46D9
:10285000B1F90E1000F088FA002803DB636D034421
:10286000636510BDA38923F48053A38110BD00BF0D
:10287000002070472DE9F0410C46B1F90C101F46BD
:10288000CB05054616460BD421F48051A1813B4669
:1028900032462846B4F90E10BDE8F04100F018BDEC
:1028A000B4F90E100223002200F0B0FCB4F90C10B1
:1028B000EAE700BF10B50C46B1F90E1000F0A6FC17
:1028C000B4F90C30421C0EBF23F4805343F4805300
:1028D0006065A38110BD00BFB1F90E1000F07EB994
:1028E0009368002B00F0F0802DE9F04FB1F90CC097
:1028F00090461CF0080F81460C4683B02BD00B6924
:102900004BB31CF00207D8F8006032D04FF0000A39
:102910005546D4F828B0216AAB4FC5B1BD422B460D
:10292000524628BF3B464846D847002840F3C2805D
:10293000D8F8083082441B1A2D1AC8F80830002B2A
:1029400000F0AE80D4F828B0216A002DE6D1D6E997
:1029500000A50836E1E721464846FFF7BDF9002803
:1029600040F0AD80B4F90CC0D8F800601CF002074C
:10297000CCD11CF0010A63D157462368A1681846E0
:102980008B46002F58D01CF4007F00F0B180B94274
:102990000A4600F2DD801CF4906F2FD02169626935
:1029A0005D1A02EB420202EBD2726B1C52103B44E6
:1029B000934292BF93469B461A461CF4806F00F0E8
:1029C000E68011464846FFF787F8002800F0F580BA
:1029D0002A4621690190FFF78BFAA289019B22F414
:1029E000906242F08002A2815819C4F814B0ABEB97
:1029F00005053A46BB462361A56020603D46002799
:102A00005146019200F032F9A1682368019AA1EBC6
:102A10000B011A44A1602260D8F80830AA445B1B5D
:102A2000C8F80830002B3BD02368A16818468B46B5
:102A3000B4F90CC0002FA6D1D6E900A708369EE74E
:102A40003846BB463D46002D40D0002845D03A468A
:102A5000D4E904C32068AA4228BF2A466045A16879
:102A600004D901EB030A524500F38280934272DCE1
:102A70005A464846216AD4F828C0E047B0F1000A17
:102A800018DDB7EB0A070FD00120D8F80830D3447F
:102A9000A3EB0A03A5EB0A05C8F80830002BD2D136
:102AA000002003B0BDE8F08F21464846FEF7A0FFA6
:102AB0000028EAD0B4F90C3043F04003A3814FF072
:102AC000FF3003B0BDE8F08F0020704775683346D3
:102AD0000836002DFAD0D3F800B02A460A2158460D
:102AE00000F0AAFB002865D00130A0EB0B07AEE791
:102AF00022699A4214D36569BD4211D86FF0004330
:102B0000BB4228BF3B4693FBF5F3524605FB03F35C
:102B10004846A56A216AA847051ECBDD7F1B7BE7D7
:102B2000B94228BF39460D46184651462A4600F09C
:102B30009DF8A1682368491B2B44A16023600029EC
:102B4000ECD121464846FEF753FF0028E6D0B1E716
:102B5000BB463A4652E75946019200F087F8019A7F
:102B6000A36892469B1AA36023681344236088E7F6
:102B70005946524600F07AF82368214653444846A5
:102B80002360FEF735FF00283FF47BAF92E748460D
:102B900000F022F9034600287FF426AF4846216959
:102BA000FFF71AF80C22B4F90C30C9F8002023F012
:102BB000800381E76A1C17464AE70C22B4F90C30FF
:102BC000C9F8002078E700BF00FCFF7F062008B5A9
:102BD00000F032FC0120FEF719FC00BF002238B5DE
:102BE000064D044608462A60FEF7FEFB431C00D053
:102BF00038BD2B68002BFBD0236038BD08020020B5
:102C000018B3F0B407468C4617F8015B01E0A54203
:102C100014D01CF8014B002CF9D1DDB13E460C4616
:102C200016F8015B00E063B114F8013B9D42FAD154
:102C30004DB100233B701660F0BC704773B138464D
:102C4000E0E73746EAE72E46F5E710680028D8D1D6
:102C50000020704700201560F0BC704717600370BB
:102C6000EAE700BF0123FFF7CBBF00BF88420ED9C0
:102C70008B1883420BD900EB020C002A6DD0624600
:102C800013F801CD994202F801CDF9D170470F2A0E
:102C90000FD8034602F1FF3C002A5ED00CF1010C74
:102CA000013B8C4411F8012B614503F8012FF9D148
:102CB000704740EA01039B0750D1A2F1100370B5A1
:102CC00001F1200C23F00F0501F1100E00F11004AA
:102CD000AC441B095EF8105C0EF1100E44F8105C59
:102CE0005EF81C5C103444F81C5C5EF8185C44F818
:102CF000185C5EF8145CE64544F8145CEAD10133D4
:102D000012F00C0F01EB031102F00F0400EB0313A0
:102D100028D08E46043C24F003064FEA940C1E444F
:102D20001C1F5EF8045B44F8045FB442F9D10CF157
:102D3000010402F0030203EB840301EB840102F1BE
:102D4000FF3C4AB10CF1010C013B8C4411F8012B02
:102D5000614503F8012FF9D170BD7047034602F1B8
:102D6000FF3C9BE72246EAE738B50C4611460022B5
:102D70008446074D20462A601A466446FEF73FFB0C
:102D8000431C00D038BD2B68002BFBD0236038BD1E
:102D9000080200200CB400B583B004AB53F8042B38
:102DA0000193FFF793FB03B05DF804EB02B07047AB
:102DB0000EB400B5074A82B003AB0146106853F861
:102DC000042B0193FFF782FB02B05DF804EB03B024
:102DD000704700BF100000202DE9F041144641B3B8
:102DE0000AB306460D4600F089FA8442074602D827
:102DF000B4EB500F13D821463046FEF76DFE8046E7
:102E000050B1BC422246294628BF3A46FFF770F827
:102E100029463046FEF7E0FE4046BDE8F081A84670
:102E20004046BDE8F081A046FEF7D6FE4046BDE82C
:102E3000F0811146BDE8F041FEF74EBE2DE9F84F96
:102E400092461F460A698B680C469A42B8BF1A46DA
:102E5000CAF8002091F843300646DDF8289013B1F7
:102E60000132CAF80020226891065FD5DAF80030F6
:102E70000233CAF80030226812F0060F11461DD145
:102E8000E1689942D8BF114618DD4FF0000804F1FF
:102E9000190B05E0E568DAF80030ED1A45450CDD60
:102EA00001235A4639463046C847013008F1010827
:102EB000F0D14FF0FF30BDE8F88F216894F843302F
:102EC000003B18BF01238A060AD53021E21882F898
:102ED000431094F845105A1C2244023382F84310E0
:102EE0003946304604F14302C8470130E1D0D4E905
:102EF00002202368DAF8005003F00603042B21694E
:102F00001BD08A4220DD4FF00008521A9044002561
:102F10001A3401E0454517DA012322463946304686
:102F2000C847013005F10105F4D1C2E712F0060FE0
:102F30000DD0003B18BF0123D2E7401B8A4220EA94
:102F4000E078E2DC0028E2DC0020BDE8F88FE168F0
:102F5000DAF800309942D8BF114696DCAEE700BFE0
:102F60002DE9F04717460A7E84B00C46064698467F
:102F70000C9D01F1430C002A35D0A2F15803D9B2BF
:102F8000202969D8202B67D8DFE813F0E600660017
:102F90006600660066006600660066006600660001
:102FA0006600AC0070006600660066006600700097
:102FB000660066006600660021008300C6006600A9
:102FC0006600B6006600830066006600EC002B68B1
:102FD0002268181D6169286010061B6802D4520619
:102FE00000F1E08019600023E14623613B46214661
:102FF0003046CDF8008003AAFFF720FF013020D033
:103000004A46394630462369C047013019D0236803
:10301000E0689B07DDF80C9018D5484516DD0025C3
:1030200004F1190A04E0E068A0EB0903AB420DDDEE
:103030000123524639463046C047013005F10105AB
:10304000F1D14FF0FF3004B0BDE8F0874845B8BF7C
:10305000484604B0BDE8F087012084F8422004F11E
:1030600042090023206184F84330BFE72A682368BF
:10307000111D1806296002D4590600F195801068C8
:10308000014600286268C0F293804FF00A0E534850
:1030900015E020682B6810F0800F53F8041B02D154
:1030A000400648BF89B26F2A14BF4FF00A0E4FF096
:1030B000080E4A482B600023626884F84330002AD7
:1030C000A26051DB236823F00403236000294BD165
:1030D000002A7BD1E146BEF1080F56D0ACEB0903C4
:1030E000236183E72A680120116804322A6004F111
:1030F000420984F84210B4E72B6800211A1D2A60A7
:10310000D3F800906268484600F096F8002863D033
:10311000A0EB09006060A4E7236843F0200323606C
:1031200078222F4884F845202A6813F0800F52F83F
:10313000041B03D113F0400F18BF89B22A60DA07CD
:1031400044BF43F02003236019B9236823F0200310
:1031500023604FF0100EAEE75823204884F8453026
:103160002368E1E72368DBE77546E146B1FBF5F349
:103170000A4605FB131A194610F80A30AA4209F844
:10318000013DF3D2BEF1080FA8D12368DD07A5D514
:10319000626823699A42A1DC302309F1FF3989F87A
:1031A00000309BE719801EE7B2F90010084668E777
:1031B0002D20002AA26084F8430002DB23F00403E0
:1031C00023600A250548AE464942CEE7037804F15C
:1031D000420984F842307EE7606842E7D44900083B
:1031E000E849000870B50026074D04460846114618
:1031F0002E60FEF7FCF8431C00D070BD2B68002B3E
:10320000FBD0236070BD00BF0802002038B50C461B
:10321000114600228446074D20462A601A4664461D
:10322000FEF7EAF8431C00D038BD2B68002BFBD01A
:10323000236038BD080200205FFA81FC810744D07A
:103240000346511E22B909E09A0709D0013905D376
:103250001846027801336245F6D170470020704766
:10326000184603290CD80029F8D00346014401E090
:103270008B42F3D0184613F8012B6245F8D1704702
:1032800010B50CEB0C24024604EB044402E00439B4
:10329000032915D9104652F8043B6340A3F1013EBF
:1032A0002EEA030313F0803FF1D00346014401E00E
:1032B0008B4208D0184613F8012B6245F8D110BD97
:1032C00010460029F1D1002010BD1146C9E700BF0A
:1032D00038B50C46114600228446074D20462A6028
:1032E0001A466446FDF7A0FA431C00D038BD2B688F
:1032F000002BFBD0236038BD0802002051F8043CAD
:10330000181F002BBCBF0B58C018704738B5C46BD2
:103310000CB1002038BD80210546FEF7DDFB0246DA
:10332000E86330B1031F7C3243F8044F9342FBD172
:10333000EFE74FF0FF3038BD30B51F29054683B0A9
:1033400008D8C36B0C4653B153F8240043F824202B
:1033500003B030BD162303604FF0FF30F8E7802143
:103360000192FEF7B9FB019A0346E8630028F3D007
:10337000011F00F17C05002041F8040FA942FBD198
:10338000E2E700BF1F2938B505461ED8C26B0C46C0
:103390006AB152F8213053B1012B06D0591C10D01C
:1033A0000021204642F824109847002038BD2846C6
:1033B00000F0F2F8224601462846BDE8384000F009
:1033C000D7B8162301202B6038BD16234FF0FF30ED
:1033D0002B6038BD1F292BD838B5C36B0C4605466A
:1033E000A3B153F8242003EB84034AB1511C0BD042
:1033F000012A07D0002520461D609047284638BD89
:10340000012038BD032038BD022038BD8021FEF7E1
:1034100063FB0346E86340B100201A1F03F17C01FF
:1034200042F8040F8A42FBD1DBE74FF0FF3038BD92
:103430004FF0FF30704700BF38B5134B1F281D6891
:103440001DD8EA6B044662B152F820304BB1012B13
:1034500005D0591C0FD0002142F8201098470020B9
:1034600038BD284600F098F8224601462846BDE8B7
:10347000384000F07DB8162301202B6038BD16239C
:103480004FF0FF302B6038BD10000020114B1F287B
:1034900070B51E6808D8F36B04460D464BB153F85F
:1034A000240043F8245070BD162333604FF0FF30E2
:1034B00070BD80213046FEF70FFB0346F063002805
:1034C000F4D00021021F7C3042F8041F8242FBD15D
:1034D000E5E700BF1000002038B50B4B1D68EC6B12
:1034E0000CB1002038BD80212846FEF7F5FAE863CC
:1034F00038B1031F00F17C0243F8044F9342FBD123
:10350000EFE74FF0FF3038BD1000002038B5174B03
:103510001F281D6826D80446E86BA0B150F8242067
:1035200000EB84034AB1511C0BD0012A07D00025BF
:1035300020461D609047284638BD012038BD032035
:1035400038BD022038BD80212846FEF7C5FAE86361
:1035500040B10021031F00F17C0243F8041F934295
:10356000FBD1DBE74FF0FF3038BD00BF100000207B
:1035700070B50026074D0446084611462E60FDF73B
:1035800040FF431C00D070BD2B68002BFBD0236094
:1035900070BD00BF08020020FDF736BF42454C4F0A
:1035A00057207468726573686F6C64006F6B007786
:1035B0006F6B652066726F6D205374616E64627903
:1035C000006E6F742066726F6D205374616E64625A
:1035D000790020706F7765722D6F6E0020736F66B3
:1035E000747761726500204957444700205757445B
:1035F0004700204E5253542070696E202852455384
:10360000455420627574746F6E2900206C6F772D9D
:10361000706F77657200666C61736820616C6961B8
:10362000736564206174203078302028424F4F54F5
:103630003020776173206C6F7729003078302069F3
:1036400073204E4F5420666C6173682028424F4FA0
:1036500054302068696768202F2073746172746524
:103660006420627920626F6F746C6F616465722987
:10367000000A4E69636B4C696E6B2076312E3320E5
:10368000626F61726420746573742C2053595343C4
:103690004C4B20256C7520487A0A00636C6F636B75
:1036A0003A2025730A005243435F43464752203075
:1036B000782530386C582C2050564420322E392032
:1036C000563A205644442025732C2025730A007254
:1036D000657365742063617573653A257325732579
:1036E0007325732573257320285243435F43535238
:1036F0002030782530386C58290A00626F6F743A90
:103700002025733B20424F4F54312F5042322072BC
:1037100065616473202564202831306B2070756CDE
:103720006C2D646F776E2C2077616E742030290ABF
:1037300000666C6173682073697A65207265672022
:103740002575204B422C20554944202530386C5893
:103750002530386C582530386C580A004F4B2028DB
:103760004C534D364453562066616D696C7929007F
:10377000554E4558504543544544202877616E7452
:1037800020307837302900494D553A206E6F20415E
:10379000434B20617420307825303258206F6E20E2
:1037A0004932433120285042362F504237290A00EF
:1037B000494D553A2057484F5F414D5F49203D20C4
:1037C0003078253032582025730A00494D553A206B
:1037D000636F6E6669672077726974652F726561C1
:1037E000646261636B204641494C454400494D5534
:1037F0003A2034383020487A2C202B2D3220672C68
:10380000202B2D32303030206470733B2074617077
:103810002F646F75626C652D7461702F77616B65B5
:103820002D7570202D3E20494E5431202D3E2050C4
:1038300041302028455854493020726973696E67B9
:103840002900485345204641494C45442061742095
:1038500072756E74696D65202843535329202D3E7F
:103860002072756E6E696E67206F6E204853492016
:1038700038204D487A004853452038204D487A205A
:103880002D3E20504C4C207839203D203732204DA1
:10389000487A202841504231203336204D487A2C36
:1038A00020414443203132204D487A2C2055534248
:1038B000203438204D487A292C20435353206F6EF2
:1038C00000485345204641494C454420746F2073BD
:1038D00074617274202D3E204853492F3220783174
:1038E00036203D203634204D487A2028555342203A
:1038F000756E757361626C6529003B20002C205346
:1039000057442070696E7320696E636C75646564DA
:10391000006F666600504100504200747970652067
:103920002768656C70270A3E2000696E7431202874
:103930004932432072656164206661696C6564295F
:1039400000646F75626C652D74617000696E74310E
:1039500020286E6F20736F757263653A205755206B
:10396000307825303258205441502030782530327C
:1039700058290A0068656C7000696E666F207C20AB
:1039800070696E73207C2077616C6B205B6D735D5A
:10399000205B616C6C5D207C206D6F6E207C2069EB
:1039A0006D75207C206932637363616E207C206DAD
:1039B000636F205B6873657C706C6C7C6873697C7A
:1039C0006F66665D207C20616463207C2073746177
:1039D0006E646279207C2072657365740A2020779A
:1039E000616C6B3A2064726976652065616368205A
:1039F000686561646572204750494F20686967684F
:103A0000207468656E206C6F772C20636865636B2B
:103A100020726561646261636B202B2073686F7232
:103A200074732028616C6C203D20696E636C756432
:103A30006520535744290A20206D6F6E3A2020706C
:103A400072696E742068656164657220696E707554
:103A500074206368616E67657320286A756D706590
:103A60007220612070696E20746F20335633207489
:103A70006F20746573742069742900696E666F0025
:103A8000636C6F636B0070696E73004C514650201D
:103A90002066756E632020206E6574202020202013
:103AA00020686561646572202066756E6374696F55
:103AB0006E202F206F6E2D626F617264206C6F61BB
:103AC00064002534752020252D35732020252D37C1
:103AD000732020252D367320202573257325730A26
:103AE0000077616C6B00616C6C0077616C6B3A20E5
:103AF000256C75206D7320706572206C6576656C21
:103B000025733B20616E79206B65792061626F724D
:103B100074730A00686967680057414C4B2025732D
:103B20002025732025730A006C6F77002020464102
:103B3000494C2025732072656164732030207768BA
:103B4000696C652064726976656E206869676820B3
:103B50002873686F727420746F20474E443F290A9F
:103B60000020204641494C20257320726561647312
:103B70002031207768696C652064726976656E20F3
:103B80006C6F77202873686F727420746F203356BF
:103B9000333F290A0020204641494C2025732066E6
:103BA0006F6C6C6F7773202573202873686F727445
:103BB0003F290A0077616C6B20646F6E653A20259F
:103BC000642070696E732C202564206661756C74A6
:103BD000730A006D6F6E006D6F6E3A20696E7075BE
:103BE000747320776974682070756C6C2D646F77BE
:103BF0006E2C207072696E74696E67206368616EE6
:103C00006765733B20616E79206B65792065786903
:103C10007473006D6F6E3A2025732025733D256403
:103C20000A006D6F6E20646F6E6500696D750049E6
:103C30004D553A206E6F7420617661696C61626CDB
:103C40006500494D553A20616363206D6720256406
:103C500020256420256420206779726F20647073AA
:103C6000202564202564202564202074656D702043
:103C7000257325642E256420432020287261772037
:103C8000616363202564202564202564290A006976
:103C900032637363616E00493243313A00203078F9
:103CA00025303258006D636F00706C6C006873696A
:103CB000004D434F206F6E2050413820284A332E4C
:103CC00035293A2025730A0061646300565245463F
:103CD000494E5420726177202564202D3E205644A1
:103CE0004441207E256C75206D560A00257325649D
:103CF00020636825643A2074696D656F75740A00E5
:103D00002573256420636825643A20726177202535
:103D10003464203D2025346C75206D560A00737480
:103D2000616E646279007761726E696E673A2050E5
:103D3000413020697320686967682C2061207269AE
:103D400073696E672065646765206973206E6565B9
:103D500064656420746F2077616B6500656E7465BF
:103D600072696E67205374616E6462793B20726978
:103D700073696E672065646765206F6E20504130FF
:103D800020286F72205245534554292077616B6576
:103D90007300726573657400726573657474696E1F
:103DA00067003F20257320287472792068656C7045
:103DB000290A000820080073776974636820746F0B
:103DC00020504C4C206661696C6564202853575321
:103DD000292C2073746179696E67206F6E204853B7
:103DE000492038204D487A00504C4C2064696420AA
:103DF0006E6F74206C6F636B2C2073746179696EC5
:103E000067206F6E204853492038204D487A00487B
:103E100053452C2065787065637420382E3030301F
:103E2000204D487A00504C4C2F322C20657870651C
:103E300063742033362E303030204D487A005042A3
:103E40003135004A312E330050423134004A312E90
:103E5000340050423133004A312E35005042313265
:103E6000004A312E360050423131004A312E37009F
:103E700050423130004A312E3800504232004A312F
:103E80002E3900504231004A312E3130005042303C
:103E9000004A312E313100504137004A312E313243
:103EA00000504136004A312E313300504135004A2E
:103EB000312E313400504134004A312E313500501A
:103EC0004133004A312E313600504132004A312E02
:103ED000313700504131004A312E313800504130E5
:103EE000004A312E313900504139004A332E330017
:103EF00050413130004A332E3400504138004A33AB
:103F00002E350050413135004A332E3600504131B4
:103F100033004A332E370050413134004A332E38B3
:103F200000504233004A332E3900504234004A33A5
:103F30002E313100504235004A332E31320050428A
:103F400036004A332E313300504237004A332E3187
:103F50003400504238004A332E3135005042390087
:103F60004A332E31360050433133004A332E313735
:103F70000050433134004A332E313800504331353C
:103F8000004A332E31390056424154007573657230
:103F9000204C45442028616374697665206C6F77F6
:103FA000290052362033333020746F205553455248
:103FB0005F4C45445F4B00504430004853455F49D7
:103FC0004E004331302031357020746F20474E440D
:103FD0002C20593120384D487A0050443100485344
:103FE000455F4F5554004331312031357020746F97
:103FF00020474E442C20593120384D487A004E52EB
:104000005354004A332E3130004339203130306E62
:1040100020746F20474E442C205357312052455373
:10402000455420746F20474E440056535341005668
:10403000444441002B332E33564100574B555020FA
:104040002F20494D5520494E543120766961203149
:10405000306B005231302031306B20746F20494D6D
:10406000555F494E54310055415254322054580046
:104070005541525432205258005350493120534335
:104080004B0053504931204D49534F005350493153
:10409000204D4F534900424F4F54312C2031306B4B
:1040A0002070756C6C2D646F776E00523820313043
:1040B0006B20746F20474E440049324332205343F3
:1040C0004C202F205541525433205458004932433C
:1040D0003220534441202F2055415254332052580E
:1040E0000056535300564444005350493220534322
:1040F0004B0053504932204D49534F0053504932E1
:10410000204D4F53490055415254312054580055C9
:1041100041525431205258005041313100555342E0
:104120005F442D004A32205553422C2055332055F0
:1041300053424C43362D32503600504131320055F7
:1041400053425F442B004A32205553422C205231B7
:104150003120346B3720746F20474E442C2052326C
:1041600020326B3220746F20564255532C20553329
:10417000205553424C43362D325036005357444954
:104180004F005357434C4B0053574F004932433174
:104190002053434C2028342E376B2070756C6C2DC7
:1041A00075702C20494D552900523720346B37202B
:1041B000746F202B332E33562C205534204C534D06
:1041C0003644535600493243312053444120283469
:1041D0002E376B2070756C6C2D75702C20494D55E9
:1041E0002900523920346B3720746F202B332E3343
:1041F000562C205534204C534D3644535600424FD4
:104200004F54300052312031306B20746F20474EB4
:10421000442C2053573220424F4F543020746F208B
:104220002B332E33560043414E20525820287265BE
:104230006D6170290043414E205458202872656DED
:10424000617029006C3800080F3E0008253E000808
:1042500012441008110615041700560F5708580885
:1042600059085A7A5BA05C0050805E683E3E0008A8
:10427000433E0008010F0000483E00084D3E000884
:10428000010E0000523E0008573E0008010D0000DC
:104290005C3E0008613E0008010C0000663E00081C
:1042A0006B3E0008010B0000703E0008753E0008E0
:1042B000010A00007A3E00087E3E0008010200006C
:1042C000833E0008873E0008010100008D3E000883
:1042D000913E000801000000973E00089B3E000848
:1042E00000070000A13E0008A53E000800060000EF
:1042F000AB3E0008AF3E000800050000B53E0008D8
:10430000B93E000800040000BF3E0008C33E00089C
:1043100000030000C93E0008CD3E00080002000076
:10432000D33E0008D73E000800010000DD3E000833
:10433000E13E000800000000E73E0008EB3E0008F8
:1043400000090000F03E0008F53E0008000A0000E9
:10435000FA3E0008FE3E000800080000033F000887
:10436000083F0008000F00000D3F0008123F000842
:10437000000D0000173F00081C3F0008000E000061
:10438000213F0008253F0008010300002A3F0008E4
:104390002E3F000801040000343F0008383F0008A9
:1043A000010500003E3F0008423F000801060000F2
:1043B000483F00084C3F000801070000523F00083A
:1043C000563F0008010800005C3F0008603F0008FD
:1043D00001090000663F00086B3F0008020D000065
:1043E000713F0008763F0008020E00007C3F000885
:1043F000813F0008020F000001000000873F000815
:1044000020420008B63D0008B63D0008B63D000851
:10441000FF00000002000000663F0008663F000841
:104420006B3F00088C3F0008A23F0008020D00000F
:1044300003000000713F0008713F0008763F00084C
:10444000B63D0008B63D0008020E00000400000062
:104450007C3F00087C3F0008813F0008B63D000813
:10446000B63D0008020F000005000000B73F00083D
:10447000BB3F0008B63D0008B63D0008C23F00083B
:104480000300000006000000DA3F0008DE3F0008DD
:10449000B63D0008B63D0008E63F000803010000F5
:1044A00007000000FE3F0008FE3F00080340000830
:1044B000B63D000809400008FF00000008000000A9
:1044C0002A40000826400008B63D0008B63D000816
:1044D000B63D0008FF000000090000002F40000862
:1044E00034400008B63D0008B63D0008B63D00085F
:1044F000FF0000000A000000DD3E0008DD3E00086D
:10450000E13E00083B400008534000080000000066
:104510000B000000D33E0008D33E0008D73E000841
:10452000B63D0008B63D0008000100000C00000088
:10453000C93E0008C93E0008CD3E0008674000089B
:10454000B63D0008000200000D000000BF3E00085C
:10455000BF3E0008C33E000870400008B63D00089A
:10456000000300000E000000B53E0008B53E000844
:10457000B93E0008B63D0008B63D00080004000042
:104580000F000000AB3E0008AB3E0008AF3E000845
:1045900079400008B63D000800050000100000004A
:1045A000A13E0008A13E0008A53E00088240000888
:1045B000B63D00080006000011000000973E00080C
:1045C000973E00089B3E00088C400008B63D00085E
:1045D00000070000120000008D3E00088D3E00081C
:1045E000913E0008B63D0008B63D000801000000FD
:1045F00013000000833E0008833E0008873E000849
:10460000B63D0008B63D000801010000140000009E
:104610007A3E00087A3E00087E3E00089640000878
:10462000AB4000080102000015000000703E0008C9
:10463000703E0008753E0008B9400008B63D00080D
:10464000010A000016000000663E0008663E0008F1
:104650006B3E0008CD400008B63D0008010B00008D
:1046600017000000E140000826400008B63D0008A1
:10467000B63D0008B63D0008FF000000180000002D
:10468000E540000820420008B63D0008B63D00089D
:10469000B63D0008FF000000190000005C3E000865
:1046A0005C3E0008613E0008B63D0008B63D0008CB
:1046B000010C00001A000000523E0008523E0008A3
:1046C000573E0008E9400008B63D0008010D000013
:1046D0001B000000483E0008483E00084D3E000810
:1046E000F2400008B63D0008010E00001C0000006A
:1046F0003E3E00083E3E0008433E0008FC400008E5
:10470000B63D0008010F00001D000000FA3E000841
:10471000FA3E0008FE3E0008B63D0008B63D00081F
:10472000000800001E000000E73E0008E73E000809
:10473000EB3E000806410008B63D000800090000F5
:104740001F000000F03E0008F03E0008F53E0008A3
:104750000F410008B63D0008000A000020000000DC
:10476000184100081D410008B63D0008B63D00088C
:1047700024410008000B0000210000003A4100081D
:104780003F410008B63D0008B63D0008464100081C
:10479000000C0000220000000D3F00080D3F000843
:1047A000123F00087C410008B63D0008000D0000E3
:1047B00023000000E140000826400008B63D000844
:1047C000B63D0008B63D0008FF00000024000000D0
:1047D000E540000820420008B63D0008B63D00084C
:1047E000B63D0008FF00000025000000173F00084C
:1047F000173F00081C3F000882410008B63D000832
:10480000000E000026000000033F0008033F0008E0
:10481000083F0008B63D0008B63D0008000F000044
:1048200027000000213F0008213F0008253F000825
:1048300088410008B63D0008010300002800000080
:104840002A3F00082A3F00082E3F0008B63D000816
:10485000B63D00080104000029000000343F0008B4
:10486000343F0008383F0008B63D0008B63D000858
:10487000010500002A0000003E3F00083E3F0008FE
:10488000423F00088C410008A941000801060000D1
:104890002B000000483F0008483F00084C3F00083C
:1048A000C5410008E2410008010700002C0000009B
:1048B000FE410008FE410008B63D0008B63D000874
:1048C00004420008FF0000002D000000523F0008D5
:1048D000523F0008563F000826420008B63D000837
:1048E000010800002E0000005C3F00085C3F00084B
:1048F000603F000835420008B63D0008010900008D
:104900002F000000E140000826400008B63D0008E6
:10491000B63D0008B63D0008FF0000003000000072
:10492000E540000820420008B63D0008B63D0008FA
:10493000B63D0008FF0000005245454E54206D6111
:104940006C6C6F63207375636365656465640000F8
:104950002E2E2F2E2E2F2E2E2F2E2E2F2E2E2F2E72
:104960002E2F6E65776C69622F6C6962632F73748A
:1049700072696E672F737472746F6B2E6300000020
:10498000232D302B20000000686C4C0065666745C5
:10499000464700002C2066756E6374696F6E3A207E
:1049A00000000000617373657274696F6E202225C8
:1049B0007322206661696C65643A2066696C6520C3
:1049C000222573222C206C696E65202564257325B1
:1049D000730A0000303132333435363738394142CA
:1049E0004344454600000000303132333435363719
:1049F0003839616263646566000000000020202091
:104A0000202020202020282828282820202020207E
:104A1000202020202020202020202020208810104E
:104A200010101010101010101010101010040404AA
:104A30000404040404040410101010101010414168
:104A40004141414101010101010101010101010156
:104A5000010101010101010110101010101042426A
:104A60004242424202020202020202020202020226
:104A700002020202020202021010101020000000C6
:104A80000000000000000000000000000000000026
:104A90000000000000000000000000000000000016
:104AA0000000000000000000000000000000000006
:104AB00000000000000000000000000000000000F6
:104AC00000000000000000000000000000000000E6
:104AD00000000000000000000000000000000000D6
:104AE00000000000000000000000000000000000C6
:104AF00000000000000000000000000000000000B6
:084B0000F0D3FF7F010000006B
:104B08006C38000800127A00010000000C02002036
:104B18001400002000000000C40000202C01002028
:104B280094010020000000000000000000000000C8
:104B3800000000000000000000000000000000006D
:104B4800000000000000000000000000000000005D
:104B5800000000000000000000000000000000004D
:0C4B68000000000003000000C40000205A
:040000050800137D5F
:00000001FF
